:100000000C94CE010C9402120C94DB110C94B411DC
:100010000C948D110C94F6010C94F6010C9466115D
:100020000C94F6010C94D6130C947B0E0C94EA0EEF
:100030000C94F6010C94F6010C94F6010C94F60164
:100040000C94F6010C94F6010C94F6010C94F60154
:100050000C94F6010C94F6010C94F6010C941C110E
:100060000C94F6010C94F6010C94F6010C94F60134
:100070000C94F6010C94F6010C94F6010C94F60124
:100080000C94F6010C94F6010C94F6010C94F60114
:100090000C9421140C94F6010C94F6010C94F601C6
:1000A0000C94F6010C9429120C94F6010000000047
:1000B0000000004F00000007000700147F147F14A9
:1000C000242A7F2A122313086462364955225000DD
:1000D00000070000001C2241000041221C001408FF
:1000E0003E081408083E08080050300000080808C0
:1000F0000808006060000020100804023E514945D5
:100100003E00427F400042615149462141454B310A
:100110001814127F1027454545393C4A4949300398
:10012000017109073649494936064949291E0036F1
:100130003600000056360000081422410014141442
:100140001414004122140802015109063249794170
:100150003E7E1111117E7F494949363E414141227F
:100160007F4141413E7F494949417F090909013E9B
:100170004149497A7F0808087F00417F41002040BB
:10018000413F017F081422417F404040407F020CE4
:10019000027F7F0408107F3E4141413E7F090909EB
:1001A000063E4151215E7F09192946464949493198
:1001B00001017F01013F4040403F1F2040201F3F81
:1001C0004038403F63140814630708700807615102
:1001D000494543007F41410002040810200041418D
:1001E0007F0004020102044040404040000102043C
:1001F0000020545454787F484444383844444420C0
:10020000384444487F3854545418087E0901020C7D
:100210005252523E7F0804047800447D4000204042
:10022000443D007F1028440000417F40007C0418BA
:1002300004787C0804047838444444387C1414144A
:1002400008081414187C7C080404084854545420EA
:10025000043F4440203C4040207C1C2040201C3C6B
:100260004038403C44281028440C5050503C4464D2
:10027000544C44000836410000007F000000413625
:1002800008000C02040806081C2A080800030C0FCA
:1002900030333C3FC0C3CCCFF0F3FCFF0000000084
:1002A000240027002A002D00300000000000250057
:1002B00028002B002E003100000000002300260043
:1002C00029002C002F000404040404030405020286
:1002D00002020403020202020606060606060404DF
:1002E0000202020404040802011040804010204071
:1002F000804080080204018040201002011080101C
:10030000204040200000000200090F00000304010B
:10031000000C0000000000000000000000000000D1
:10032000000000080B0002020200000904000001A6
:10033000020200000524001001052401010104242B
:100340000206052406000107058103100040090488
:100350000100020A00000007050202400000070534
:1003600083024000000403090412010002EF0201AD
:100370004041233680000101020301417264756926
:100380006E6F204C4C430041726475696E6F204C57
:10039000656F6E6172646F006F15211A11241FBEA4
:1003A000CFEFDAE0DEBFCDBF23E0AAEAB1E001C0C3
:1003B0001D92A73CB207E1F711E0A0E0B1E0EAE945
:1003C000FAE302C005900D92AA3AB107D9F711E0FD
:1003D000CDECD1E004C02197FE010E943C1BCC3C37
:1003E000D107C9F70E94E6150C94401D0C9400003B
:1003F0005B9887FD5D9A87FF5D985B9A5B9886FDA9
:100400005D9A86FF5D985B9A5B9885FD5D9A85FF96
:100410005D985B9A5B9884FD5D9A84FF5D985B9A1A
:100420005B9883FD5D9A83FF5D985B9A5B9882FD84
:100430005D9A82FF5D985B9A5B9881FD5D9A81FF72
:100440005D985B9A5B9880FD5D9A80FF5D985B9AF2
:1004500008958230910538F0880F991F880F991FF1
:1004600005970197F1F70895FC01809158028823C0
:1004700011F13FB7F89482E08093E9002091F200F7
:10048000822F90E01816190614F481E090E088237A
:1004900039F0289844E6409357024091F100408398
:1004A000222339F02091F200211103C02BE6209382
:1004B000E8003FBF08958FEF9FEF08952FB7F8949E
:1004C00083E08093E9009091E800892F807295FF86
:1004D00004C09091F20080E4891B2FBF08958091A1
:1004E0004F0281110DC082E080934B0284E0809323
:1004F0004C0210924E0210924D0281E080934F0206
:100500008BE492E00895CF93DF931F92CDB7DEB7CF
:100510006983DC01ED91FC910280F381E02D41E0E3
:1005200050E0BE016F5F7F4F09950F90DF91CF9133
:10053000089583E08093E9008091F200882319F008
:100540008AE38093E80008950E945E0290E0089597
:10055000CF93DF931F92CDB7DEB7FC0184859585DD
:1005600097FD08C02FEF3FEF358724870F90DF916D
:10057000CF910895CE0101960E943402019719F49B
:10058000898190E0F3CF8FEF9FEFF0CF0F931F9310
:10059000CF93DF931F92CDB7DEB78C01FC0184852A
:1005A000958597FF0BC0CE0101960E9434020197FA
:1005B00071F4898190E0F80195878487F80184853A
:1005C00095850F90DF91CF911F910F9108958FEF37
:1005D0009FEFF1CFFC018485958597FD0BC09FB7F8
:1005E000F89482E08093E9008091F2009FBF90E050
:1005F000019608959FB7F89482E08093E900809176
:10060000F2009FBF90E0089540914502509146024C
:10061000209143023091440242175307B4F4909161
:10062000E8009570E1F39091E80092FD19C0809385
:10063000F100809145029091460201968F739927AF
:10064000892B19F48EEF8093E800809145029091F8
:1006500046020196909346028093450281E00895F8
:1006600080E00895DF92EF92FF920F931F93CF9354
:10067000DF93D82E8A01EB017B01E40EF51ECE1527
:10068000DF0559F0D7FE12C0FE0184910E940403D9
:1006900021968111F4CF0FEF1FEFC801DF91CF91A9
:1006A0001F910F91FF90EF90DF9008958881EECF1A
:1006B0000F931F93CF93DF931F92CDB7DEB782E0E6
:1006C000898342E450E063E273E080E80E943203F1
:1006D0000E946F02DC0112960D911C91011511050B
:1006E00089F0D801ED91FC910280F381E02DBE01EB
:1006F0006F5F7F4FC801099597FD04C0F801008521
:100700001185ECCF89810F90DF91CF911F910F91CF
:100710000895615030F02091F100FC012083019692
:10072000F8CF289884E680935702089581508F303F
:1007300008F047C0E82FF0E0E056FC4F0C943C1B5B
:10074000BD03C103AF03B503B903E103E103E10353
:10075000C403CA03CE03D203D803E103DC038091B0
:1007600080008F77809380000895809180008F7D36
:10077000F9CF80918000877FF5CF84B58F7784BDD6
:10078000089584B58F7DFBCF809190008F77809303
:1007900090000895809190008F7DF9CF8091900016
:1007A000877FF5CF8091C0008F778093C000089538
:1007B0008091C0008F7DF9CF8091C200877F8093A8
:1007C000C2000895CF93DF93282F30E0F901EC5F4A
:1007D000FC4F8491F901EB51FD4FD491F901EA539B
:1007E000FD4FC491CC23A1F081110E949603EC2F00
:1007F000F0E0EE0FFF1FE854FD4FA591B491EC918E
:10080000ED2381E090E009F480E0DF91CF9108953D
:1008100080E090E0FACF1F93CF93DF93282F30E052
:10082000F901EC5FFC4F8491F901EB51FD4FD4913C
:10083000F901EA53FD4FC491CC23A9F0162F811181
:100840000E949603EC2FF0E0EE0FFF1FE655FD4FE0
:10085000A591B4918FB7F894EC91111108C0D0957F
:10086000DE23DC938FBFDF91CF911F910895DE2BA4
:10087000F8CFCF93DF9390E0FC01EB51FD4F249133
:100880008A539D4FFC0184918823C9F090E0880F22
:10089000991FFC01E456FD4FA591B491FC01E6556A
:1008A000FD4FC591D49161110DC09FB7F8948C9103
:1008B000209582238C938881282328839FBFDF91F2
:1008C000CF910895623051F49FB7F8943C91822FF4
:1008D000809583238C93E8812E2BEFCF8FB7F894EC
:1008E000EC912E2B2C938FBFEACF8091C3028F3FC8
:1008F00061F061E00E94390460E08091C3020E94CF
:100900000B048BE193E00197F1F708958091C30206
:100910008F3F61F061E00E94390461E08091C30281
:100920000E940B048BE193E00197F1F708953FB724
:10093000F89480913F0290914002A0914102B091C1
:10094000420226B5A89B05C02F3F19F00196A11DB4
:10095000B11D3FBFBA2FA92F982F8827BC01CD0109
:10096000620F711D811D911D42E0660F771F881F68
:10097000991F4A95D1F708958F929F92AF92BF9297
:10098000CF92DF92EF92FF924B015C010E9497049D
:100990006B017C010E9497046C197D098E099F09E7
:1009A000683E734081059105A8F321E0821A910801
:1009B000A108B10888EEC80E83E0D81EE11CF11C26
:1009C00081149104A104B10429F7FF90EF90DF9006
:1009D000CF90BF90AF909F908F9008958F929F92ED
:1009E000AF92BF92CF92DF92EF92FF920F931F933D
:1009F000CF93DF936C017B018A01809121018823D1
:100A000009F45CC080915802882309F457C0809192
:100A10004A0280FF05C08091E00082608093E00080
:100A2000E801B12C8AEFA82E93E0892E2AE3922EBA
:100A3000209711F4BB20D9F10E945E0281110AC0F7
:100A4000AA94AA20D9F161E070E080E090E00E94D1
:100A5000BC04EECF8C171D0611F00CF08C2F9FB745
:100A6000F8948092E9002091E80025FD02C09FBF24
:100A7000DFCF282F30E0C21BD30BF701815020F0CD
:100A800041914093F100FACFE20EF31EBB2021F01A
:100A90009092E800B12CEBCF8091E80085FDE7CF84
:100AA0009092E800BB24B394209709F3F3CF5D98AC
:100AB00084E680934902101611063CF081E090E034
:100AC000F6019383828310E000E0C801DF91CF91AB
:100AD0001F910F91FF90EF90DF90CF90BF90AF905C
:100AE0009F908F900895089580912C02E0912D029F
:100AF000F0912E02882339F084919FEB980F9A3160
:100B000020F4805E08958081F8CF803269F42091CE
:100B10002D0230912E02A9014F5F5F4F50932E029C
:100B200040932D02232B01F708951F93CF93DF935A
:100B30000E947405D0E0C0E01AE090ED980F9A3062
:100B4000B8F41C9F90011D9F300D1124E901C80FBE
:100B5000D11D87FDDA95E09780912D0290912E02AC
:100B6000019690932E0280932D020E947405E5CF8A
:100B7000CE01DF91CF911F9108953F924F925F92E6
:100B80006F927F928F929F92AF92BF92CF92DF929D
:100B9000EF92FF920F931F93CF93DF937B01D42E9D
:100BA0002091290221111BC021E0209329021092DB
:100BB00072001092C00034E03093C10039E03093ED
:100BC000C2002093C30023E02093BF0028EE2093AF
:100BD000D1001092BF001092D200579A78941092D0
:100BE0000901CC24C39497FF03C09F77AAE0CA2EC3
:100BF000C8E2CC9EC02D1124D0E08C179D0750F088
:100C000021E0EC01C21206C0C13187E2D80710F022
:100C1000C0E1D7E24E01B12CA12C4C2C512C712CEF
:100C2000612C9E01AFEFB7E00E94BC1A640D751DE8
:100C3000861D971D9695879577956795A3019201D7
:100C40000E94FB1A60E072E18AE790E0312C339455
:100C5000621773078407950728F09695879577950F
:100C60006795F5CFA30192010E94CB1A9E0136959C
:100C70002795620F731F811D911DA50194010E948C
:100C8000FB1A722E022F132F2AE0C21207C0CE01C8
:100C900005966AE070E00E94E71AEB01C83E83E027
:100CA000D80759F09701DE010E94BC1A28EE33E004
:100CB00040E050E00E941D1B79011092720080916B
:100CC000C100807F83298093C1001093BF00709280
:100CD000D1004D2D403108F04FE080E190E0841BC1
:100CE000910902C0169507958A95E2F71093BF0007
:100CF0000093D200F0922B02E0922A0289B38FEF88
:100D000089BB84E080937200DF91CF911F910F9196
:100D1000FF90EF90DF90CF90BF90AF909F908F901B
:100D20007F906F905F904F903F900895FB018F3FB1
:100D300011F0411106C040E0BF0188EE93E00C9431
:100D4000BD0520E0813128F020EF280F203608F083
:100D50002FE5822F6CE00E94DB1A382F54EF5303EB
:100D6000B0011124260F372F311D2C303105C8F466
:100D7000220F331FD901AF5BBE4F2D913C918730BD
:100D8000D1F0082E02C0220F331F0A94E2F78230FE
:100D900058F0C90105966AE070E00E94E71ACB019D
:100DA00005C030E020E0EBCFC9019058403108F099
:100DB0004FE0BF01C4CFC90126E0880F991F2A95D3
:100DC000E1F7029665E070E0E8CFCF93DF93EC01A6
:100DD000888581110EC0898591E098879A8562E0A7
:100DE000911101C060E00E9439048FE090E001970A
:100DF000F1F789850E94E2033B8521E03817190647
:100E000009F420E0822FDF91CF9108952E98269A41
:100E10002D98259A2A98229A2998219A80EA8093D7
:100E2000800081E18093810080E991E090938700C8
:100E300080938600109289001092880010928B0097
:100E400010928A0008950F931F93CF93DF938C0124
:100E5000EB0180912502811105C081E0809325027C
:100E60000E94060780E017FF04C011950195110943
:100E700081E0013991E0190714F000E911E01093C5
:100E80008B0000938A00882329F12A9A229A809164
:100E90002502811105C081E0809325020E9406078A
:100EA00080E0D7FF04C0D195C195D10981E0C13957
:100EB00091E0D90714F0C0E9D1E0D0938900C09344
:100EC0008800882349F0299A219ADF91CF911F91B8
:100ED0000F9108952A98DACF2998F6CF46983E9A2E
:100EE000E0E9F0E082E080831092910010927100BE
:100EF0001082109299001092980010929700109210
:100F00009600109295001092940086988E980895FD
:100F1000FC01109271009B014617570708F49A01D3
:100F200046983E9890E8909390001092910090938C
:100F300092003E9AEF2BB9F08E9A869A50939700C2
:100F4000409396004150510950939500409394006E
:100F5000309399002093980082E88093900089E173
:100F60008093910008958E98E8CF7F928F929F9200
:100F7000AF92BF92CF92DF92EF92FF920F931F93A7
:100F8000CF93DF93FC0122853385232B09F476C0B0
:100F90006B01EC0110E08C851817E8F4E12EF12CC0
:100FA0008E859F85F701EE0FFF1FEC0DFD1D9183D0
:100FB0008083EA85FB85EE0DFF1D61E080810E9444
:100FC0000B04EA85FB85EE0DFF1D61E080810E9428
:100FD00039041F5FE0CF83E290E00197F1F710E062
:100FE0008C851817A0F4E12EF12CEA85FB85EE0D17
:100FF000FF1D60E080810E943904EA85FB85EE0DCB
:10100000FF1D60E080810E940B041F5FE9CF0E94FA
:1010100097044B015C010E949704AB01BC01481985
:1010200059096A097B098E859F85B0E0A0E04817C1
:1010300059076A077B0710F50E9497047B01E8189F
:10104000F908712C8C85781630F7072D10E0EA85A9
:10105000FB85E00FF11F80810E94E203892B61F480
:10106000000F111FF601E00FF11F80819181E8163A
:10107000F90610F4F182E0827394E4CFDF91CF910E
:101080001F910F91FF90EF90DF90CF90BF90AF90A6
:101090009F908F907F9008952091D601260F33273F
:1010A000331F21323105ECF42091FA01FC0190E06C
:1010B00080E0243069F082E00895A091D60121916A
:1010C000AC014A545E4FA40FB52FB11D2C9301966D
:1010D000861798F38091D601680F6093D60180E05F
:1010E000089581E0089508958FEF9FEF08958FEFA1
:1010F0009FEF08958091AF0190E0919581959109BE
:101100000895CF93DF93CB01EA01642F0E944C082E
:10111000CE01DF91CF910895CF93DF931F92CDB78A
:10112000DEB7698361E0CE0101960E944C0881E040
:1011300090E00F90DF91CF910895289A209A08951A
:101140002898209A08955F926F927F928F929F9233
:10115000AF92BF92CF92DF92EF92FF920F931F93C5
:10116000CF93DF935C01D62FC42FF22E132F0E9452
:10117000A0088D2F806B0E94F8018C2F82958F70B4
:1011800080610E94F8018C2F8F700E94F8010E94EC
:101190009D08CF2DD12F0C0F1D2F111D95E0692E0D
:1011A000C017D10709F444C07990872D8052990B5C
:1011B0009C01629EC001639E900D1124769C4001AB
:1011C0001124F12CE12C9C0124553F4F69013FE192
:1011D000371508F5F601EE0DFF1DE491F0E084E00F
:1011E000F595E7958A95E1F7E457FD4F5490852DE5
:1011F0000E94F801852D0E94F8019FEFE91AF90A73
:1012000025E0E216F10419F780E00E94F80180E081
:101210000E94F801C5CF87E0E0E08715F8F2F401FD
:10122000EE0DFF1DE254FF4FEA0DFB1DE081D6CF0E
:10123000DF91CF911F910F91FF90EF90DF90CF90B2
:10124000BF90AF909F908F907F906F905F90089528
:101250005F926F927F928F929F92AF92BF92CF9246
:10126000DF92EF92FF920F931F93CF93DF935C0176
:10127000D62FC42FF22E132F0E94A0088D2F806B23
:101280000E94F8018C2F82958F7080610E94F80176
:101290008C2F8F700E94F8010E949D08CF2DD12FB6
:1012A0000C0F1D2F111D85E0682EC017D10709F402
:1012B00040C07990872D8052990B9C01629EC0019D
:1012C000639E900D1124769C40011124F12CE12C99
:1012D0009C0124553F4F69013FE13715E8F4F601C1
:1012E000EE0DFF1DE491EF70F0E0E457FD4F5490D8
:1012F000852D0E94F801852D0E94F8019FEFE91AC3
:10130000F90A25E0E216F10439F780E00E94F801BD
:1013100080E00E94F801C9CF87E0E0E0871518F36C
:10132000F401EE0DFF1DE254FF4FEA0DFB1DE081BD
:10133000DACFDF91CF911F910F91FF90EF90DF9067
:10134000CF90BF90AF909F908F907F906F905F9065
:101350000895282F21FB0EF0209820FB0EF02898EE
:101360000EF4289A21FB0EF4209A0895282F21FBD1
:101370000EF0559820FB0EF05D980EF45D9A21FB5F
:101380000EF4559A0895CF93DF93479A3F9A88ECCD
:1013900092E00E94E5068823D1F36AE070E080E0E5
:1013A00090E00E94BC0488EC92E00E94E50688234D
:1013B00071F388EC92E00E94E5068111FACF6AE0B1
:1013C00070E080E090E00E94BC0488EC92E00E9413
:1013D000E5068111EECF47983F9AC3E0D0E068EE72
:1013E00073E080E090E00E94BC044FE068EC70E0A5
:1013F0008BE20E949606219791F768EE73E080E0F9
:1014000090E00E94BC044FE064EF71E087E30E942B
:10141000960668EE73E080E090E00E94BC0481E0F4
:1014200080933302DF91CF910895CF93DF93EC0146
:1014300088810E94B60989810E94A909E9EEF0E03D
:1014400010828C818093F0008B8180838A818093CD
:10145000E200DF91CF910895FC01A2EEB0E08C9103
:1014600082831C92A9EEB0E08C9183831C92A0EF42
:10147000B0E08C9184831C9220E05D9921605599A5
:101480002260208320E02899216020992260218316
:101490005D98559A0895CF92DF92EF92FF920F9345
:1014A000CF93DF93EC017C0184E0E80EF11CC701CF
:1014B0000E942C0A6E0184E1C80ED11C08E096013E
:1014C00043E162E0CE010E942809960143E163E016
:1014D000CE010E94A3086E0189E2C80ED11C9601BC
:1014E00043E165E0CE010E942809960143E166E0F0
:1014F000CE010E94A308C701DF91CF910F91FF9009
:10150000EF90DF90CF900C94150AEF92FF920F931B
:101510001F93CF93DF938C017C0184E0E80EF11CD4
:10152000C7010E942C0A0E94A00882E00E94F801D4
:10153000C0E00E94A0088C2F806B0E94F80180E11F
:101540000E94F8010E949D08D0E080E00E94F8010E
:10155000DF5FD038D1F7CF5FC83059F7C7010E949D
:10156000150AF8011286DF91CF911F910F91FF901C
:10157000EF900895AF92BF92CF92DF92EF92FF92D9
:101580000F931F93CF93DF937C01122F683008F0E5
:1015900043C0423008F040C088E0861B8217D0F17B
:1015A0002223D1F1C42FCC0FC40FDCE06D9FD02DCE
:1015B0001124DD5E670124E1C20ED11C862F90E06C
:1015C00025E1429F800D911D1124C80ED91E57019F
:1015D00084E0A80EB11CC5010E942C0A62E06C0FC9
:1015E000012F96014D2FC7010E94280963E06C0F5F
:1015F00096014D2FC7010E94A308C501DF91CF912D
:101600001F910F91FF90EF90DF90CF90BF90AF9020
:101610000C94150A182FC6CFDF91CF911F910F910F
:10162000FF90EF90DF90CF90BF90AF9008955B98C0
:10163000539A0895089590E080E0089580FF1BC0BC
:101640002B9A239A81FF19C0289A209A82FF17C0EB
:10165000479A3F9A83FF15C05D9A559A5B9A539AB1
:1016600085E08A95F1F700005B98539A85E08A95AA
:10167000F1F7000008952B98E4CF2898E6CF47981B
:10168000E8CF5D98EACFEF92FF920F931F93CF932D
:10169000DF9300D000D01F92CDB7DEB76C833091BE
:1016A000E2003D831092E2001091E9001092E900FF
:1016B0000091F0001092F00030E05A993160529998
:1016C0003260398330E02B993160239932603A835C
:1016D00030E02899316020993260F32E30E047994C
:1016E00031603F9932603B8330E05D9931605599BC
:1016F0003260E32E442309F44CC05A9A529A2111C5
:1017000005C08C8182958F700E941E0B8C818F701A
:101710000E941E0B8E2D0E94B6092B8121FB0EF01C
:101720003F9820FB0EF047980EF4479A21FB0EF4E9
:101730003F9A8F2D0E94A9093A8131FB0EF0239820
:1017400030FB0EF02B980EF42B9A31FB0EF4239AFB
:10175000298121FB0EF0529820FB0EF05A980EF4CE
:101760005A9A21FB0EF4529A1092E9000093F0006D
:101770001093E9003D813093E2000F900F900F909D
:101780000F900F90DF91CF911F910F91FF90EF90ED
:1017900008955A98B3CFFF920F931F93CF93DF937F
:1017A000EC01162F042FF22E8C81811145C0E881A7
:1017B000F98181E08C830084F185E02DCE010995CB
:1017C00021E040E063E0CE010E94CB0B8FE991E481
:1017D0000197F1F700C0000021E040E063E0CE0196
:1017E0000E94CB0B87E592E00197F1F700C0000063
:1017F00021E040E063E0CE010E94CB0B21E040E01D
:1018000062E0CE010E94CB0B68E2CE010E94590C2F
:1018100068E0CE010E94590C1D82CE010E945D0C31
:1018200066E0CE010E94590C82E08E836CE0CE010E
:101830000E94590C84E08D83E881F9810284F3854C
:10184000E02D2F2D402F612FCE01099595EC9A9513
:10185000F1F70000DF91CF911F910F91FF90089554
:1018600020E041E00E94CB0B81E090E00895CF9210
:10187000DF92EF92FF920F931F93CF93DF937C0140
:101880008A01EB016B01C40ED51ECC15DD0539F0C4
:10189000699120E041E0C7010E94CB0BF6CFC8015F
:1018A000DF91CF911F910F91FF90EF90DF90CF903C
:1018B000089520E040E00C94CB0B61E00E94590CAD
:1018C0008FE39FE10197F1F700C0000008951F9397
:1018D000CF93DF9385ED8093BC008091B20190910E
:1018E000B301A091B401B091B5010796A11DB11D3E
:1018F00023E0B695A795979587952A95D1F72091DE
:10190000BC0024FD03C01092FA0152C04091B20104
:101910005091B3016091B4017091B501452B462BF4
:10192000472B69F30097A105B10541F02AE22A95FA
:10193000F1F700C00197A109B109E1CF8091B10190
:10194000C1E0C093B001882399F1D091B800109103
:10195000BA008091BC008A7B8093BC0060E082E08A
:101960000E940B0460E083E00E940B041092FA01D5
:10197000C093FC011092FB0161E082E00E940B0425
:1019800061E083E00E940B048091B9008E7F809318
:10199000B9008091B9008D7F8093B90088E480936D
:1019A000B80085E48093BC001093BA00D093B800CF
:1019B000DF91CF911F910895DF92EF92FF920F93E5
:1019C0001F93CF93DF93EC01F62EE42ED22E898560
:1019D00081112DC05B98539A5A98529A85E38A9543
:1019E000F1F700005A9A529AA5E3AA95F1F7000080
:1019F000CE010E94850A8E010C5F1F4FC8010E9414
:101A00002C0A0E94A00881EA0E94F80188EC0E943A
:101A1000F80181E80E94F8018FEF0E94F8018FEA37
:101A20000E94F801C8010E94150A81E089878A8511
:101A3000882319F0CE010E94850A2A893B89C901B1
:101A4000959587958C0F9D1FE889F98920FF08C01F
:101A5000DC012D913C91E20FF31F0190F081E02D0C
:101A60002D2D4E2D6F2DDF91CF911F910F91FF9056
:101A7000EF90DF900994CF93DF93DC01A354BF4F25
:101A80002C91283008F5EC01C454DF4FE881E53192
:101A9000D8F4AC0175E1279F400D511D1124E40FCE
:101AA000F52FF11D648BFC012385211105C021E078
:101AB0004C9168810E94DC0C88818F5F888381E073
:101AC00090E0DF91CF91089590E080E0FACFCF923F
:101AD000DF92EF92FF920F931F93CF93DF9300D08B
:101AE00000D0CDB7DEB78A01C0902801D09029017F
:101AF000E0902A01F0902B01C982DA82EB82FC820D
:101B00006C0F7D1FFB016181680F84ED92E00E94E4
:101B1000590CF5ECFA95F1F7000001151105C9F023
:101B2000F80101900020E9F73197AF01401B510BFC
:101B3000B80184ED92E00F900F900F900F90DF911D
:101B4000CF911F910F91FF90EF90DF90CF900C9469
:101B5000370C0F900F900F900F90DF91CF911F9146
:101B60000F91FF90EF90DF90CF900895FC0180815E
:101B70009181009711F00C94DE1B0895CF92DF92B3
:101B8000EF92FF920F931F93CF93DF93CDB7DEB702
:101B900061970FB6F894DEBF0FBECDBF8C01CB01AD
:101BA000F8011182108213821282158214824AE097
:101BB0009E012F5F3F4F6901B9010E94501AF60143
:101BC00001900020E9F731977F01EC18FD08F8013A
:101BD00080819181009729F0228133812E153F0564
:101BE00090F4B7016F5F7F4F0E94671CF801009768
:101BF00099F091838083F382E28224813581232BC3
:101C000011F4FC011082F801F582E482B6018081B2
:101C100091810E94391D0DC080819181009711F042
:101C20000E94DE1BF8011182108215821482138239
:101C3000128261960FB6F894DEBF0FBECDBFDF9162
:101C4000CF911F910F91FF90EF90DF90CF9008956B
:101C5000BF92CF92DF92EF92FF920F931F93CF9399
:101C6000DF938C01EA016C012DEBC20ED11CF60151
:101C700030813830D8F57C01FCEBEF0EF11CF70118
:101C80008081853198F525E1281B90E02417150601
:101C900020F4C5E1D0E0C81BD90BF5E13F9F800DD2
:101CA000911D1124AE0198012C5E3F4F820F931FAE
:101CB0000E94291DBC2EF8018385811108C02C2F9C
:101CC000F6014081F7016081C8010E94DC0CF70138
:101CD00080818B0D8083CE01DF91CF911F910F9179
:101CE000FF90EF90DF90CF90BF900895D0E0C0E0DC
:101CF000F2CF0E94241D1F920F920FB60F92112453
:101D00008F939F938091E1009091E100937F909356
:101D1000E10083FF0FC01092E90091E09093EB0087
:101D20001092EC0092E39093ED001092580298E02C
:101D30009093F00082FF22C093E09093E90090918D
:101D4000F200992319F09AE39093E80090914902E8
:101D5000992341F090914902915090934902911139
:101D600001C05D9A90915702992341F090915702DA
:101D7000915090935702911101C0289A84FF18C086
:101D80008091E2008E7E81608093E2008091E1008C
:101D90008F7E8093E10080914A028E7E80618093E5
:101DA0004A029F918F910F900FBE0F901F90189530
:101DB00080FFF7CF8091E2008E7E80618093E20009
:101DC0008091E1008E7E8093E10080914A028E7EB8
:101DD0008160E5CF1F920F920FB60F921124CF9220
:101DE000DF92EF92FF920F931F932F933F934F93A6
:101DF0005F936F937F938F939F93AF93BF93EF9373
:101E0000FF93CF93DF93CDB7DEB76C97DEBFCDBF27
:101E10001092E9008091E80083FF25C068E0CE01C0
:101E200045960E94890382EF8093E8008D8987FFA1
:101E300039C09091E80090FFFCCF982F907609F080
:101E400034C19E894F89588D2F89F88C911131C0EA
:101E5000803861F5809148028093F1001092F10082
:101E60008EEF8093E8006C960FB6F894DEBF0FBE3D
:101E7000CDBFDF91CF91FF91EF91BF91AF919F9136
:101E80008F917F916F915F914F913F912F911F9112
:101E90000F91FF90EF90DF90CF900F900FBE0F90BB
:101EA0001F9018959EEF9093E800C7CF1092F10015
:101EB000D5CF913059F48111D3CF4130510581F6FE
:101EC000809148028D7F80934802CACF933049F4B5
:101ED0008111C6CF4130510519F6809148028260C8
:101EE000F2CF953041F48091E80080FFFCCF20686C
:101EF0002093E300B5CF963009F0A9C00B8D1C8D5F
:101F000022E01092E9001092460210924502F2126D
:101F10002EC010924402109243020E9458031F8266
:101F200099E09983FA8291E09E8390EA98879AEFEC
:101F300099872091450230914602275F3F4F3C83AD
:101F40002B838D831092E900109246021092450275
:101F5000109344020093430249E050E0BE016F5FDA
:101F60007F4F80E00E9432030E94580379CF109384
:101F70004402009343020E946F02DC0112960D910D
:101F80001C910115110509F451C1D801ED91FC9185
:101F90000480F581E02DBE016B5E7F4FC80109957D
:101FA000009709F03EC1F80100851185EACFF3E002
:101FB000FF120EC08F89882309F440C0823061F47B
:101FC00040E860E187E893E00E943C15811148CF2A
:101FD00081E28093EB0047CF813029F440E86BE049
:101FE0008BE793E0F1CF833099F70E946F02DC0119
:101FF0001296ED90FC908E010F5F1F4F6801E11467
:10200000F10479F0D701ED91FC910680F781E02D84
:10201000B801C7010995080F111DF701E084F1848B
:10202000EECFD8011C92F60101900020E9F731971C
:10203000BF016C197D0940E0C601C6CF65E673E0BB
:10204000FB01449150E080E80E94320309CF9730B1
:1020500009F4BECF983021F481E08093F10000CFE5
:10206000993009F0FDCE837009F0B2CFEAE5F1E0D6
:1020700081E031E096E32191222371F08093E90021
:102080003093EB00DF0111972C912093EC0090939B
:10209000ED008F5F873079F78EE78093EA0010922A
:1020A000EA008F8980935802DBCE8B8D9C8D109235
:1020B000E9001092460210924502909344028093E8
:1020C0004302898D811192C08E899D89913A49F48C
:1020D000813209F07DCF47E050E06AE171E080E0B5
:1020E000B3CF913209F074CF833269F48F89988D20
:1020F000B0E0A0E08093160190931701A09318011F
:10210000B0931901ADCE803269F48091E80082FF6E
:10211000FCCF67E08AE191E00E9489038BEF809316
:10212000E8009ECE823209F09BCE8F8980932101F8
:10213000EEEFFFE7859194918B3F9C4D51F1E0E0EC
:10214000F8E080911A0190911B01A0911C01B091BF
:102150001D01803B9440A105B105F1F4809121015E
:1021600080FD1AC0EE3F8AE0F80789F587E797E718
:1021700091838083809160008093470288E19BE097
:102180000FB6F894A895809360000FBE90936000FE
:1021900067CEEEEFFAE0D5CF808191818737974700
:1021A00009F05ECEA8958091600088618093600000
:1021B0008091470280936000EE3F2AE0F20789F0A9
:1021C0008091FE0A9091FF0A9183808349CE80819D
:1021D00091818737980751F29093FF0A8093FE0A06
:1021E000C5CF1092FF0A1092FE0A3ACE0E946F02EB
:1021F000DC0112960D911C910115110509F4E8CE30
:10220000D801ED91FC910190F081E02DBE016B5E53
:102210007F4FC8010995811123CEF80100851185F2
:10222000EBCF181619060CF41BCED2CEF1E0FF123C
:10223000BECE69E673E004CF1F920F920FB60F92E5
:1022400011242F933F938F939F93AF93BF938091CC
:102250003B0290913C02A0913D02B0913E02309130
:102260003A0223E0230F2D3758F50196A11DB11D29
:1022700020933A0280933B0290933C02A0933D024C
:10228000B0933E0280913F0290914002A0914102A2
:10229000B09142020196A11DB11D80933F0290931F
:1022A0004002A0934102B0934202BF91AF919F912F
:1022B0008F913F912F910F900FBE0F901F90189507
:1022C00026E8230F0296A11DB11DD2CF1F920F92B7
:1022D0000FB60F9211242F933F934F935F936F93F9
:1022E0007F938F939F93AF93BF93EF93FF93E0916F
:1022F0001201F09113010995FF91EF91BF91AF91F8
:102300009F918F917F916F915F914F913F912F910D
:102310000F900FBE0F901F9018951F920F920FB63F
:102320000F9211242F933F934F935F936F937F935B
:102330008F939F93AF93BF93EF93FF93E09110011F
:10234000F09111010995FF91EF91BF91AF919F918C
:102350008F917F916F915F914F913F912F910F904E
:102360000FBE0F901F9018951F920F920FB60F92ED
:1023700011242F933F934F935F936F937F938F938A
:102380009F93AF93BF93EF93FF93E0910E01F09172
:102390000F010995FF91EF91BF91AF919F918F919F
:1023A0007F916F915F914F913F912F910F900FBE51
:1023B0000F901F9018951F920F920FB60F92112435
:1023C0002F933F934F935F936F937F938F939F933D
:1023D000AF93BF93EF93FF93E0910C01F0910D0148
:1023E0000995FF91EF91BF91AF919F918F917F914F
:1023F0006F915F914F913F912F910F900FBE0F9072
:102400001F9018951F920F920FB60F9211242F93C1
:102410003F934F935F936F937F938F939F93AF936C
:10242000BF93EF93FF93E0910A01F0910B0109959F
:10243000FF91EF91BF91AF919F918F917F916F919C
:102440005F914F913F912F910F900FBE0F901F9072
:1024500018951F920F920FB60F9211246F927F92D0
:102460008F929F92AF92BF92CF92DF92EF92FF92A4
:102470000F931F932F933F934F935F936F937F938C
:102480008F939F93AF93BF93CF93DF93EF93FF937C
:1024900080912A0290912B029C01215031093093A6
:1024A0002B0220932A02892BA1F5109272007894B6
:1024B0008091C100807F84608093C10083E080931D
:1024C000BF0088EE8093D1001092BF001092D2001E
:1024D00081E08093090180912D0290912E02892B39
:1024E000C1F080912802811114C090900801809160
:1024F0002702882369F180912602882349F160919F
:10250000260270E040E088EE93E00E94BD05109244
:102510002602FF91EF91DF91CF91BF91AF919F91F3
:102520008F917F916F915F914F913F912F911F916B
:102530000F91FF90EF90DF90CF90BF90AF909F9062
:102540008F907F906F900F900FBE0F901F901895F7
:102550007724739440ECA42E4DE5B42E5AE0652EFA
:1025600064E0862E70EDC72E77E0D72EE4E0EE2EE5
:10257000F12C04EF11E0CFE0D0E00E94740520912F
:102580002D0230912E022F5F3F4F30932E02209369
:102590002D02853609F473C00CF047C0813609F46A
:1025A000B4C024F58C3309F468C08E3309F463C0D9
:1025B000813209F043C080920801D0920501C09297
:1025C0000401F0920701E0920601109303010093C9
:1025D0000201D0930101C093000110922702909054
:1025E00008018091020190910301C7CF833609F45D
:1025F0008FC0D0E0CBE0843614F0D0E0C2E08CE0B5
:10260000989EC00D11240E947405982F977F9332D5
:1026100009F080C080912D0290912E020196909336
:102620002E0280932D02CF5FEECF8D3609F445C088
:1026300054F4873651F134F18C3651F110922E0258
:1026400010922D0266CF823709F44CC044F48F36C5
:10265000A9F70E949505982E809308018ECF8437A4
:1026600009F443C0863751F70E9495059093010104
:102670008093000182CF939480CF9A947ECFD0E054
:10268000C4E0BDCFD0E0C5E0BACFD0E0C7E0B7CF5F
:102690000E949505909307018093060180910401A3
:1026A0009091050160910601709107010E94E71A5F
:1026B000709303016093020160CF0E9474058C3611
:1026C00061F41092270280912D0290912E020196C2
:1026D00090932E0280932D0250CF70922702109279
:1026E0002602F1CFD1E0C0E08ACF0E949505BC015F
:1026F000C5010E94E71A669EC001679E900D1124D5
:102700009093050180930401C9CFD0E0C9E077CF51
:10271000D0E0E9CF8D3269F480912D0290912E02A4
:10272000019690932E0280932D02C1500E94740551
:10273000F1CF00910201109103018153883058F4C8
:1027400000910401109105010E949505BC01C8018A
:102750000E94E71A8B017801F694E7940E947405B1
:102760008E3261F480912D0290912E020196909309
:102770002E0280932D020E0D1F1DEECF8091270299
:10278000882349F0C8019695879580932602809109
:102790002602081B11094091000150910101D1113D
:1027A000CFEFB8018C2F0E949606B3CE1F920F92E6
:1027B0000FB60F9211242F933F934F936F937F93F4
:1027C0008F939F938CB1282F30E0359527953595C1
:1027D0002795422F417083B190E064E095958795ED
:1027E0006A95E1F78227817020912402909123025B
:1027F000609121027091220228279427291B330B14
:10280000260F371F309322022093210220912302AA
:1028100090912402281729F0941719F091E09093D1
:10282000200280932302409324029F918F917F91F5
:102830006F914F913F912F910F900FBE0F901F906E
:1028400018951F920F920FB60F9211242F933F935A
:102850004F935F936F937F938F939F93AF93BF93A8
:10286000EF93FF938091B900887F803609F44AC0C6
:10287000F0F5883209F4A5C018F5803109F499C043
:10288000B8F4882309F4F5C0883009F492C0FF91A8
:10289000EF91BF91AF919F918F917F916F915F91D8
:1028A0004F913F912F910F900FBE0F901F90189551
:1028B000883109F486C0803251F78093F90114C041
:1028C000803409F49BC040F48033B9F38833F9F6BF
:1028D0008093F90185ECAEC0803509F483C088355A
:1028E00009F494C0883499F60E94670CD0CF8839D7
:1028F00009F48AC038F5883729F050F4883611F089
:10290000803729F683E08093FA011092F80155C0D0
:10291000883809F479C0803919F0803809F0B7CFC8
:102920008091F801803208F06FC0E091F80181E0F9
:102930008E0F8093F8018091BB00F0E0E852FE4FCB
:1029400080833BC0803B39F0D0F4803A09F477C0F3
:10295000883A09F09CCF84E08093FA011092D70165
:102960001092D601F0E0E0E009958091D601811146
:102970000FC081E08093D6011092B60109C0803C5F
:1029800009F4A8CF883C09F4A5CF883B09F07FCF94
:10299000E091D70181E08E0F8093D701F0E0EA54F7
:1029A000FE4F80818093BB009091D7018091D6012A
:1029B00029C080911F028093BB0085EC8093BC00EE
:1029C00066CF90911E0280911D02981758F5E091F4
:1029D0001E0281E08E0F80931E02F0E0E350FE4F56
:1029E0008081E9CFE0911E0281E08E0F80931E026C
:1029F0008091BB00F0E0E350FE4F808390911E0277
:102A000080911D029817C8F285E8D8CFE0911E0288
:102A100081E08E0F80931E028091BB00F0E0E350B6
:102A2000FE4F80838091FC0181115ECF81E0809315
:102A3000FB0184EA8093BC001092FA0128CF85EC58
:102A40008093BC001092FA018091F801803230F43A
:102A5000E091F801F0E0E852FE4F10826091F80139
:102A600070E088ED91E0F0E0E0E009951092F80167
:102A70000ECF1092F90138CFEF92FF920F931F9370
:102A8000CF93DF93F82E192FE62E042F81E0860FC7
:102A9000880F0E94040383E00E940403CF2DD12FEE
:102AA000EC0EFD2EF11CCE15DF05B9F007FF13C0AB
:102AB000FE0184910E940403182F80E00E94040309
:102AC000812321968111EFCFDF91CF911F910F913B
:102AD000FF90EF9008958881EDCF81E0F5CFCF93FF
:102AE000DF93E9E5F2E01382128288EE93E0A0E042
:102AF000B0E084839583A683B78384E691E09183D5
:102B000080838FEF9FEF95878487CBEDD2E01B8288
:102B10001A8248EA50E060E270E08FEE92E00E9494
:102B2000321D1092C2031092C1038BE49AE09D877C
:102B30008C871F861E868AEB9AE0998B888B1B8A6E
:102B40001A8A81E08A8722E931E039832883E4ED1B
:102B5000F2E013821282148222E831E03183208372
:102B6000E8ECF2E01282158210869EE0918782875F
:102B700083878CE791E091838083E6EBF2E0138218
:102B8000128215821482178216821186108613868D
:102B9000128686E791E091838083E9EAF2E0118270
:102BA000108212828FEF838315821482168285EA47
:102BB00091E09287818782E492E09487838784EA18
:102BC00091E090878783DF91CF910895CF93DF9332
:102BD000CDB7DEB7C056D1090FB6F894DEBF0FBE31
:102BE000CDBF789484B5826084BD84B5816084BD96
:102BF00085B5826085BD85B5816085BD80916E009B
:102C0000816080936E0010928100809181008260CB
:102C10008093810080918100816080938100809108
:102C20008000816080938000809191008260809319
:102C3000910080919100816080939100809190003B
:102C40008160809390008091C10084608093C10076
:102C50008091C10082608093C1008091C100816039
:102C60008093C1008091C30081608093C3008091F4
:102C7000C00082608093C0008091C2008160809318
:102C8000C20080917A00846080937A0080917A00FB
:102C9000826080937A0080917A00816080937A00CC
:102CA00080917A00806880937A0010925802109286
:102CB000480210924A028091D70081608093D70029
:102CC00080EA8093D80089B5806189BD89B582602A
:102CD00089BD09B400FEFDCF61E070E080E090E0C6
:102CE0000E94BC048091D8008F7C80618093D800C2
:102CF0008091E000807F8093E0008091E1008E7EF3
:102D00008093E1008DE08093E200559A209A84ED53
:102D100092E00E945D0C4AE951E070E060E090E0D2
:102D200080E00E94670D80912C0190912D01A0916F
:102D30002E0189839A83AB831092B9021092B80254
:102D40001092BB021092BA021092BD021092BC0205
:102D50001092BF021092BE021092C7021092C602D9
:102D600083E08093C2028091C0029091C102892BBE
:102D7000C9F080E09091C202891708F06BC0282F3B
:102D800030E0E091C002F091C102E20FF31F41E098
:102D900050E04C0F5D1F240F351FD9019C9190838B
:102DA0008F5FE8CF83E090E00E94421B9093C102C6
:102DB0008093C002892BE9F680ED97E09093C502DD
:102DC0008093C4028BE08093AC0263E070E080915A
:102DD000A9029091AA020E94671C009751F090935B
:102DE000AA028093A90221E02093AB0226E1FC0114
:102DF0002083B1EEEB2EFF24FA9468EC70E088E3B8
:102E00009FEFFCE3EF16F10420F068E37FEF88EC1E
:102E100090E00E9423078091BA029091BB02892B17
:102E2000E9F40091C20210E0C801880F991F0E94C6
:102E3000421B9093BB028093BA02009709F4AFC083
:102E4000FC0190E080E08017910744F41192119208
:102E50000196F9CF8BE08093C302AECF8091B80288
:102E60009091B902892BE9F40091C20210E0C801E7
:102E7000880F991F0E94421B9093B9028093B80259
:102E8000009709F48CC02091C4023091C502FC0166
:102E900090E080E08017910724F42193319301960C
:102EA000F9CF10E000E00E948604BE016F5B7F4F07
:102EB00086EB92E00E94B5070E9475044091C20221
:102EC00050E0DE0111963E0121E2620E711CBE014E
:102ED0006F5B7F4F30E020E04D0153012417350731
:102EE00024F5FB0181919191BF010115110599F024
:102EF000F301C080D180C816D90668F0CD90DC906F
:102F000011978C159D0568F02F5F3F4F1296F2E0E8
:102F10006F0E711CE3CFF3019183808301151105BE
:102F200069F711969C938E93EFCF0F5F1F4F0A3076
:102F3000110509F0B8CF0091BA021091BB0260915F
:102F4000B8027091B90230E020E08091C20282178D
:102F5000130629F124F1C901880F991FF401E80F24
:102F6000F91F40815181F801E80FF91FA081B1815B
:102F7000A417B50710F451834083F501E80FF91F3A
:102F800040815181FB01E80FF91F80819181481731
:102F9000590710F4518340832F5F3F4FD6CF2FEF57
:102FA000E21AF20A49E5E416F10409F026CF70E0CE
:102FB00060E090E080E00E9423070E94C30933E0B4
:102FC000B32E40E0E42E40E0F42E56E0A52E64E659
:102FD000C62ED12C0E94860464E372E086EB92E058
:102FE0000E94B5070E94750410E08091AB0218178B
:102FF00080F4E091A902F091AA021B9DE00DF11D61
:10300000112480818F3118F462E00E9439041F5F1F
:10301000ECCF8091AC028F3170F460E00E940B0421
:1030200061E08091AC020E9439048091B4029091D9
:10303000B5020E9429028091AD029091AE02892BC7
:10304000F9F48CE0EFE2F1E0DE01119601900D92CF
:103050008A95E1F76CE070E090E080E00E94671CE8
:10306000009771F02CE0FE013196DC0101900D9289
:103070002A95E1F79093AE028093AD02A092AF0241
:103080009091AB02E091A902F091AA0280E098171A
:1030900029F0128211828F5F3396F9CF10E0809170
:1030A000AF021817B0F05091AB028091A902909135
:1030B000AA029C0140E0541709F495C0F9012D5F64
:1030C0003F4FD90113976C91663109F47EC04F5F71
:1030D000F2CF812F90E0880F991FE091AD02F0911F
:1030E000AE02E80FF91F808091804091B0025091AC
:1030F000B102B40190E080E00E9488078091B202A2
:103100009091B3020E94290200E08091AB0208175F
:10311000D8F40B9D30011124E091A902F091AA028C
:10312000E60DF71D80818F3168F40E94E203892B40
:1031300049F4E091A902F091AA02E60DF71D818100
:103140008F5F81830F5FE1CF0E946E078091B40291
:103150009091B5020E9429024091B0025091B102B3
:10316000B40181E090E00E9488078091B2029091C2
:10317000B3020E94290200E08091AB020817D8F444
:103180000B9D40011124E091A902F091AA02E80DE3
:10319000F91D80818F3168F40E94E203892B49F484
:1031A000E091A902F091AA02E80DF91D82818F5FDA
:1031B00082830F5FE1CF0E946E078091B4029091ED
:1031C000B5020E9429021F5F6ACF218130E05317A8
:1031D00009F4AAC0FC010396DC0113974C91463117
:1031E00021F03F5FF4CF20E0F1CF8281263008F458
:1031F0009DC028139BC04FE068EC70E08BE20E94FA
:103200009606479A3F9A84ED92E00E945D0C42EA4E
:1032100051E070E060E090E080E00E94670D70E0B7
:1032200060E090E080E00E9423071092330284ED7A
:1032300092E00E945D0C6091340270913502CE01E3
:1032400001960E94BE0D49815A8161E070E090E0D4
:1032500080E00E94670DCE0101960E94B60D60913C
:10326000360270913702CE0101960E94BE0D49814F
:103270005A8170E060E082E090E00E94670DCE012C
:1032800001960E94B60D6091380270913902CE010C
:1032900001960E94BE0D49815A8161E070E084E090
:1032A00090E00E94670DCE0101960E94B60D64E188
:1032B00070E080E090E00E94BC0488EC92E00E9404
:1032C000E506882341F070E060E090E080E00E9435
:1032D00023071092330280913302811102C00E94B1
:1032E000C30980913402909135028139914028F5CB
:1032F000809136029091370281399140F0F48091AB
:1033000038029091390281399140B8F480911401CA
:1033100090911501BC010E942307E114F10409F406
:1033200059CE0E94000056CE80E060CF47983F9A69
:10333000D0921501C09214017ACF80913102909100
:103340003202059700F180912F029091300205978B
:10335000D0F010923202109231021092300210928C
:103360002F026CE97FEF84E690E00E94230764E877
:1033700073E080E090E00E94BC0470E060E090E0C8
:1033800080E00E94230780913802909139028139B0
:10339000914038F16CE97FEF8CE99FEF0E942307A1
:1033A0006EE571E080E090E00E94BC0465E570E0AD
:1033B0008BEA9FEF0E9423076EE571E080E090E0CA
:1033C0000E94BC0464E670E084E690E00E9423075B
:1033D0008091310290913202019690933202809353
:1033E000310280913402909135028139914008F484
:1033F00094CF6CE97FEF8CE99FEF0E9423076EE585
:1034000071E080E090E00E94BC046BEA7FEF85E50C
:1034100090E00E9423076EE571E080E090E00E945A
:10342000BC0464E670E084E690E00E94230780918B
:103430002F029091300201969093300280932F02D8
:103440006CCF8FE391E09093B7028093B6028091A6
:10345000C0029091C102009711F00E94DE1B809182
:10346000BA029091BB02009711F00E94DE1B80917E
:10347000BE029091BF02009711F00E94DE1B809166
:10348000B8029091B902009711F00E94DE1B809162
:10349000BC029091BD02009711F00C94DE1B0895C0
:1034A000BB27FB015527AA27880F991FAA1FA4171E
:1034B00010F0A41B83955051B9F7A05DAA3308F012
:1034C000A95DA193009779F7B111B1931192CB0146
:1034D0000C946A1ADC01FC01672F71917723E1F7E4
:1034E000329704C07C916D9370836291AE17BF07D1
:1034F000C8F308950E94BC1AA59F900DB49F900D2B
:10350000A49F800D911D112408952F923F924F92F8
:103510005F926F927F928F929F92AF92BF92CF9263
:10352000DF92EF92FF920F931F93CF93DF93CDB76C
:10353000DEB7CA1BDB0B0FB6F894DEBF0FBECDBFE4
:1035400009942A88398848885F846E847D848C84B5
:103550009B84AA84B984C884DF80EE80FD800C81BE
:103560001B81AA81B981CE0FD11D0FB6F894DEBFA1
:103570000FBECDBFED010895A29FB001B39FC00162
:10358000A39F700D811D1124911DB29F700D811D8F
:103590001124911D0895DB018F939F930E947A1A45
:1035A000BF91AF91A29F800D911DA39F900DB29FDF
:1035B000900D11240895991B79E004C0991F961766
:1035C00008F0961B881F7A95C9F780950895AA1B65
:1035D000BB1B51E107C0AA1FBB1FA617B70710F0FE
:1035E000A61BB70B881F991F5A95A9F78095909530
:1035F000BC01CD010895A1E21A2EAA1BBB1BFD013F
:103600000DC0AA1FBB1FEE1FFF1FA217B307E407C1
:10361000F50720F0A21BB30BE40BF50B661F771F19
:10362000881F991F1A9469F76095709580959095F9
:103630009B01AC01BD01CF010895052E97FB1EF43F
:1036400000940E94341B57FD07D00E94FB1A07FC10
:1036500003D04EF40C94341B509540953095219531
:103660003F4F4F4F5F4F08959095809570956195AE
:103670007F4F8F4F9F4F0895EE0FFF1F0590F491DE
:10368000E02D09940F931F93CF93DF938230910520
:1036900010F482E090E0E091C503F091C60330E0C1
:1036A00020E0B0E0A0E0309799F42115310509F44D
:1036B0004AC0281B390B24303105D8F58A819B81FB
:1036C0006115710589F1FB0193838283FE0111C0AD
:1036D000408151810281138148175907E0F0481752
:1036E000590799F4109761F012960C93129713965C
:1036F0001C933296CF01DF91CF911F910F910895C6
:103700000093C5031093C603F4CF2115310551F082
:103710004217530738F0A901DB019A01BD01DF010F
:10372000F801C1CFEF01F9CF9093C6038093C50391
:10373000CDCFFE01E20FF31F819391932250310907
:1037400039832883D7CF2091C3033091C403232B1F
:1037500041F420912401309125013093C40320933A
:10376000C30320912201309123012115310541F439
:103770002DB73EB74091260150912701241B350BF0
:10378000E091C303F091C403E217F307A0F42E1BEA
:103790003F0B2817390778F0AC014E5F5F4F2417B5
:1037A000350748F04E0F5F1F5093C4034093C30387
:1037B000819391939FCFF0E0E0E09CCFCF93DF9394
:1037C0000097E9F0FC01329713821282A091C503A1
:1037D000B091C603ED0130E020E01097A1F4208104
:1037E0003181820F931F2091C3033091C4032817A6
:1037F000390709F061C0F093C403E093C303DF917C
:10380000CF910895EA01CE17DF07E8F54A815B8181
:103810009E0141155105B1F7E901FB83EA83499106
:103820005991C40FD51FEC17FD0761F48081918178
:103830000296840F951FE901998388838281938181
:103840009B838A83F0E0E0E012968D919C91139720
:103850000097B9F52D913C911197CD010296820FF9
:10386000931F2091C3033091C4032817390739F6F9
:10387000309751F51092C6031092C503B093C4035C
:10388000A093C303BCCFD383C28340815181840FF3
:10389000951FC817D90761F44E5F5F4F88819981E2
:1038A000480F591F518340838A819B819383828370
:1038B0002115310509F0B0CFF093C603E093C5039D
:1038C0009ECFFD01DC01C0CF13821282D7CFB0E0C2
:1038D000A0E0EDE6FCE10C94871A8C01009751F40E
:1038E000CB010E94421B8C01C801CDB7DEB7E0E1DD
:1038F0000C94A31AFC01E60FF71F9C01225031091A
:10390000E217F30708F49DC0D901CD91DC9111971E
:10391000C617D70798F0C530D10530F3CE0104970C
:103920008617970708F3C61BD70B2297C193D1932D
:103930006D937C93CF010E94DE1BD6CF5B01AC1A46
:10394000BD0A4C018C0E9D1EA091C503B091C6030B
:10395000512C412CF12CE12C109731F58091C303AF
:103960009091C4038815990509F05CC04616570666
:1039700008F058C08091220190912301009741F4F2
:103980008DB79EB74091260150912701841B950B5E
:10399000E817F90708F055C0F093C403E093C30398
:1039A000F90171836083A0CF8D919C91119712963C
:1039B0006C90129713967C901397A815B90559F53A
:1039C0006C0142E0C40ED11CCA14DB0420F1AC012E
:1039D0004A195B09DA011296159780F062827382A8
:1039E00051834083D9016D937C93E114F10471F00C
:1039F000D7011396FC93EE93129776CF22968C0FF5
:103A00009D1FF90191838083F301EFCFF093C603EB
:103A1000E093C50369CF4816590608F42C017D01CF
:103A2000D3019ACFCB010E94421B7C01009749F041
:103A3000AE01B8010E94291DC8010E94DE1B87014A
:103A400053CF10E000E050CF81E090E0F8940C9468
:103A5000401DFB01DC0102C001900D92415050401D
:103A6000D8F70895DC0101C06D9341505040E0F754
:103A70000895FB01DC0101900D920020E1F708950B
:103A800011E0CDECD1E004C0FE010E943C1B219668
:0A3A9000CE3CD107C9F7F894FFCF30
:103A9A000F00F401D00704000401730573057305D0
:103AAA00730573056400FFFFFFFF00E100000000DB
:103ABA0000000000C703800080C094D412150C04D3
:103ACA00000F002000370055007800000000007940
:103ADA000E9C01B501CF01EA0107022602470269DD
:103AEA00028E02B502DE020A0300C18081000000D4
:103AFA00000000008302EE04A4029902EA02A8026E
:103B0A00C60200000000B50700000000E50600003C
:103B1A000000300C370C1B0B1A0B170B430B000061
:103B2A0000003B0D280E1B0B1A0B50726573732095
:0A3B3A00410050617263656C0000E9
:00000001FF
